{
  "transactions": [
    {
      "hash": "0x96c0b4164393fb21478581b4a47bf25ed98fcbca0347fc87cdd40ea850504d2b",
      "transactionType": "CALL",
      "contractName": null,
      "contractAddress": "0xcfcd96d4b017bc83fd67b030d32d103a7f6f485d",
      "function": "setScoreRegistry(address)",
      "arguments": [
        "0x7cC5385b2fa1cA408a2f7F938001cf0ccECA390c"
      ],
      "transaction": {
        "from": "0x32fe11d9900d63350016374be98ff37c3af75847",
        "to": "0xcfcd96d4b017bc83fd67b030d32d103a7f6f485d",
        "gas": "0x107cf",
        "value": "0x0",
        "input": "0x5eb6ee8e0000000000000000000000007cc5385b2fa1ca408a2f7f938001cf0cceca390c",
        "nonce": "0xc0",
        "chainId": "0x1205"
      },
      "additionalContracts": [],
      "isFixedGasLimit": false
    },
    {
      "hash": "0xc37f69ff1144185902e902a754d6b7414c4d1709122f5aaf05365f459b2b2606",
      "transactionType": "CALL",
      "contractName": null,
      "contractAddress": "0xcfcd96d4b017bc83fd67b030d32d103a7f6f485d",
      "function": "grantMinter(address)",
      "arguments": [
        "0x7cC5385b2fa1cA408a2f7F938001cf0ccECA390c"
      ],
      "transaction": {
        "from": "0x32fe11d9900d63350016374be98ff37c3af75847",
        "to": "0xcfcd96d4b017bc83fd67b030d32d103a7f6f485d",
        "gas": "0x10809",
        "value": "0x0",
        "input": "0x261707fa0000000000000000000000007cc5385b2fa1ca408a2f7f938001cf0cceca390c",
        "nonce": "0xc1",
        "chainId": "0x1205"
      },
      "additionalContracts": [],
      "isFixedGasLimit": false
    },
    {
      "hash": "0xfd5530bf2eddf34ae74bfb8062aaeffb009809b295d6978d20813c951cbc66fc",
      "transactionType": "CALL",
      "contractName": null,
      "contractAddress": "0xdf7bc712757ef8bec78ca24b3f01066c825421f7",
      "function": "setScoreRegistry(address)",
      "arguments": [
        "0x7cC5385b2fa1cA408a2f7F938001cf0ccECA390c"
      ],
      "transaction": {
        "from": "0x32fe11d9900d63350016374be98ff37c3af75847",
        "to": "0xdf7bc712757ef8bec78ca24b3f01066c825421f7",
        "gas": "0xf8cc",
        "value": "0x0",
        "input": "0x5eb6ee8e0000000000000000000000007cc5385b2fa1ca408a2f7f938001cf0cceca390c",
        "nonce": "0xc2",
        "chainId": "0x1205"
      },
      "additionalContracts": [],
      "isFixedGasLimit": false
    },
    {
      "hash": "0xc779f22244995fcf7160448fc5ac5d5c8daba88b9edb68f5e97036fbf1e648e6",
      "transactionType": "CALL",
      "contractName": null,
      "contractAddress": "0x7cc5385b2fa1ca408a2f7f938001cf0cceca390c",
      "function": "addAuthorizedUpdater(address)",
      "arguments": [
        "0xcfCd96d4b017Bc83Fd67B030D32d103a7F6F485D"
      ],
      "transaction": {
        "from": "0x32fe11d9900d63350016374be98ff37c3af75847",
        "to": "0x7cc5385b2fa1ca408a2f7f938001cf0cceca390c",
        "gas": "0xf91f",
        "value": "0x0",
        "input": "0x8c9b9fdc000000000000000000000000cfcd96d4b017bc83fd67b030d32d103a7f6f485d",
        "nonce": "0xc3",
        "chainId": "0x1205"
      },
      "additionalContracts": [],
      "isFixedGasLimit": false
    },
    {
      "hash": "0x8cb49b48c932716ba2479c8cfbb6b5e4535aa9462b20a70094aa5bf763131b9f",
      "transactionType": "CALL",
      "contractName": null,
      "contractAddress": "0x7cc5385b2fa1ca408a2f7f938001cf0cceca390c",
      "function": "addAuthorizedUpdater(address)",
      "arguments": [
        "0xdF7bc712757EF8BeC78Ca24B3f01066C825421f7"
      ],
      "transaction": {
        "from": "0x32fe11d9900d63350016374be98ff37c3af75847",
        "to": "0x7cc5385b2fa1ca408a2f7f938001cf0cceca390c",
        "gas": "0xf91f",
        "value": "0x0",
        "input": "0x8c9b9fdc000000000000000000000000df7bc712757ef8bec78ca24b3f01066c825421f7",
        "nonce": "0xc4",
        "chainId": "0x1205"
      },
      "additionalContracts": [],
      "isFixedGasLimit": false
    }
  ],
  "receipts": [
    {
      "status": "0x1",
      "cumulativeGasUsed": "0xb462",
      "logs": [],
      "logsBloom": "0x00000000000000000000000000000000000000000000000000000000000000000000000000000000000000000000000000000000000000000000000000000000000000000000000000000000000000000000000000000000000000000000000000000000000000000000000000000000000000000000000000000000000000000000000000000000000000000000000000000000000000000000000000000000000000000000000000000000000000000000000000000000000000000000000000000000000000000000000000000000000000000000000000000000000000000000000000000000000000000000000000000000000000000000000000000000",
      "type": "0x0",
      "transactionHash": "0x96c0b4164393fb21478581b4a47bf25ed98fcbca0347fc87cdd40ea850504d2b",
      "transactionIndex": "0x0",
      "blockHash": "0xb3fe2c5bb6eed831063b722cbd6972d5afe482281277035e54a05e44f028deea",
      "blockNumber": "0x3f59f1",
      "gasUsed": "0xb462",
      "effectiveGasPrice": "0x3a35294400",
      "from": "0x32fe11d9900d63350016374be98ff37c3af75847",
      "to": "0xcfcd96d4b017bc83fd67b030d32d103a7f6f485d",
      "contractAddress": null
    },
    {
      "status": "0x1",
      "cumulativeGasUsed": "0xb48a",
      "logs": [],
      "logsBloom": "0x00000000000000000000000000000000000000000000000000000000000000000000000000000000000000000000000000000000000000000000000000000000000000000000000000000000000000000000000000000000000000000000000000000000000000000000000000000000000000000000000000000000000000000000000000000000000000000000000000000000000000000000000000000000000000000000000000000000000000000000000000000000000000000000000000000000000000000000000000000000000000000000000000000000000000000000000000000000000000000000000000000000000000000000000000000000",
      "type": "0x0",
      "transactionHash": "0xc37f69ff1144185902e902a754d6b7414c4d1709122f5aaf05365f459b2b2606",
      "transactionIndex": "0x0",
      "blockHash": "0x5d727c3de3c9a802f8f3409b25eb91f18d97db03f5dc4875ab20139cd1cae9b5",
      "blockNumber": "0x3f59f2",
      "gasUsed": "0xb48a",
      "effectiveGasPrice": "0x3a35294400",
      "from": "0x32fe11d9900d63350016374be98ff37c3af75847",
      "to": "0xcfcd96d4b017bc83fd67b030d32d103a7f6f485d",
      "contractAddress": null
    },
    {
      "status": "0x1",
      "cumulativeGasUsed": "0xb420",
      "logs": [],
      "logsBloom": "0x00000000000000000000000000000000000000000000000000000000000000000000000000000000000000000000000000000000000000000000000000000000000000000000000000000000000000000000000000000000000000000000000000000000000000000000000000000000000000000000000000000000000000000000000000000000000000000000000000000000000000000000000000000000000000000000000000000000000000000000000000000000000000000000000000000000000000000000000000000000000000000000000000000000000000000000000000000000000000000000000000000000000000000000000000000000",
      "type": "0x0",
      "transactionHash": "0xfd5530bf2eddf34ae74bfb8062aaeffb009809b295d6978d20813c951cbc66fc",
      "transactionIndex": "0x0",
      "blockHash": "0x17d1ed72e253e60ef55ed2d7c5c45a39104e1d2a0309bcf5a0febbf8037b407f",
      "blockNumber": "0x3f59f3",
      "gasUsed": "0xb420",
      "effectiveGasPrice": "0x3a35294400",
      "from": "0x32fe11d9900d63350016374be98ff37c3af75847",
      "to": "0xdf7bc712757ef8bec78ca24b3f01066c825421f7",
      "contractAddress": null
    },
    {
      "status": "0x1",
      "cumulativeGasUsed": "0xb45d",
      "logs": [],
      "logsBloom": "0x00000000000000000000000000000000000000000000000000000000000000000000000000000000000000000000000000000000000000000000000000000000000000000000000000000000000000000000000000000000000000000000000000000000000000000000000000000000000000000000000000000000000000000000000000000000000000000000000000000000000000000000000000000000000000000000000000000000000000000000000000000000000000000000000000000000000000000000000000000000000000000000000000000000000000000000000000000000000000000000000000000000000000000000000000000000",
      "type": "0x0",
      "transactionHash": "0xc779f22244995fcf7160448fc5ac5d5c8daba88b9edb68f5e97036fbf1e648e6",
      "transactionIndex": "0x0",
      "blockHash": "0x12b7e2f914862b6a31d79f19a664adfd336d85ab6febb98bc698ebf355c04975",
      "blockNumber": "0x3f59f4",
      "gasUsed": "0xb45d",
      "effectiveGasPrice": "0x3a35294400",
      "from": "0x32fe11d9900d63350016374be98ff37c3af75847",
      "to": "0x7cc5385b2fa1ca408a2f7f938001cf0cceca390c",
      "contractAddress": null
    },
    {
      "status": "0x1",
      "cumulativeGasUsed": "0xb45d",
      "logs": [],
      "logsBloom": "0x00000000000000000000000000000000000000000000000000000000000000000000000000000000000000000000000000000000000000000000000000000000000000000000000000000000000000000000000000000000000000000000000000000000000000000000000000000000000000000000000000000000000000000000000000000000000000000000000000000000000000000000000000000000000000000000000000000000000000000000000000000000000000000000000000000000000000000000000000000000000000000000000000000000000000000000000000000000000000000000000000000000000000000000000000000000",
      "type": "0x0",
      "transactionHash": "0x8cb49b48c932716ba2479c8cfbb6b5e4535aa9462b20a70094aa5bf763131b9f",
      "transactionIndex": "0x0",
      "blockHash": "0xb1bf2951f052d443b382ecb04d4410cefb5ef95e22caeb22ea9243654f7fdc9b",
      "blockNumber": "0x3f59f5",
      "gasUsed": "0xb45d",
      "effectiveGasPrice": "0x3a35294400",
      "from": "0x32fe11d9900d63350016374be98ff37c3af75847",
      "to": "0x7cc5385b2fa1ca408a2f7f938001cf0cceca390c",
      "contractAddress": null
    }
  ],
  "libraries": [],
  "pending": [],
  "returns": {},
  "timestamp": 1767427650,
  "chain": 4613,
  "commit": "37c033a"
}